:020000040800F2
:100000000006022001020008D90E0008DD0E0008DB
:10001000350F0008DD0E0008090F00080302000874
:100020000302000803020008030200087129000807
:10003000030200080302000803020008030200088C
:10004000030200080302000803020008030200087C
:100050000302000803020008D53A0008FD3A000830
:10006000253B00084D3B0008753B000803020008D3
:10007000030200080302000803020008030200084C
:10008000030200080302000803020008030200083C
:100090000302000803020008030200089D3B000859
:1000A000030200080302000803020008030200081C
:1000B000E93C0008030200080302000803020008EC
:1000C00003020008030200080302000803020008FC
:1000D00003020008713C0008853C0008993C0008B8
:1000E000013C0008030200080302000803020008A4
:1000F00003020008030200080302000803020008CC
:1001000003020008030200080302000803020008BB
:10011000AD3C0008030200080302000803020008C7
:10012000030200080302000803020008030200089B
:10013000030200080302000803020008030200088B
:10014000030200080302000803020008253100082A
:10015000030200080302000803020008C13C000873
:10016000030200080302000803020008030200085B
:10017000030200080302000803020008030200084B
:100180000302000803020008D53C0008030200082F
:10019000030200080302000803020008030200082B
:1001A000030200080302000803020008030200081B
:1001B000030200080302000803020008030200080B
:1001C00003020008030200080302000803020008FB
:1001D00003020008030200080302000803020008EB
:1001E00003020008030200080302000803020008DB
:1001F00003020008030200080302000803020008CB
:1002000002E000F000F8FEE772B63A4880F3088892
:10021000394880F3098839484EF60851CEF200017A
:10022000086040F20000CCF200004EF63471CEF2CD
:1002300000010860BFF34F8FBFF36F8F40F20000E3
:10024000C0F2F0004EF68851CEF200010860BFF314
:100250004F8FBFF36F8F4FF00000E1EE100A4EF6A4
:100260003C71CEF200010860062080F31488BFF3D1
:100270006F8F02F03BFC02F0DDFB03F0CDFA4FF094
:1002800055301F491B4A91423CBF41F8040BFAE725
:100290001C49194A91423CBF41F8040BFAE71A493C
:1002A0001A4A1B4B9A423EBF51F8040B42F8040B0A
:1002B000F8E700201749184A91423CBF41F8040B67
:1002C000FAE702F0F5FB03F007FB144C144DAC42C7
:1002D00003DA54F8041B8847F9E700F041F8114CA1
:1002E000114DAC4203DA54F8041B8847F9E702F0D9
:1002F000DDBB0000000602200022022000000008F2
:1003000000000220000602202841000800220220EE
:100310005C220220602202208C40022000020008A1
:100320000002000800020008000200082DE9F04F5A
:100330002DED108AC1F80CD0D0F80CD0BDEC108A8D
:10034000BDE8F08F002383F311882846A0470020E2
:1003500001F05CFFFEE701F0F1FE00DFFEE70000C8
:1003600038B500F0ADFC40B1174B6FF07F010022B3
:1003700059720F211A729972DA7202F0BBFA0546AD
:1003800002F0F0FA0446D0B9104B9D4219D0013367
:100390009D4241F2883512BF044600250124002009
:1003A00002F0B2FA0CB100F059F800F037FD00F09D
:1003B000C7FB284600F0E0F800F050F8F9E7002508
:1003C000EDE70546EBE700BF00220220010007B081
:1003D00008B500F081FBA0F120035842584108BD48
:1003E00007B541F21203022101A8ADF8043000F074
:1003F00091FB03B05DF804FB202310B583F3118853
:100400001248C3680BB101F087FF0023104A4FF474
:100410007A710E4801F044FF002383F311880D4CDC
:10042000236813B12368013B2360636813B16368D9
:10043000013B6360084B1B7833B9636823B9022022
:1004400000F05EFC3223636010BD00BF602202201A
:10045000F90300087C23022074220220F8B5404BE7
:10046000404A1C461968013179D004339342F9D1CE
:100470006268A24273D33C4B9B6803F1006303F5AF
:1004800000439A426BD2002000F074FB0220374BED
:10049000187000F027FC364B00211A6C19641A6E94
:1004A00019661A6E5A6C59645A6E59665A6E5A69B0
:1004B00042F080025A615A6922F080025A615A69F8
:1004C0001A6942F000521A611A6922F000521A6148
:1004D0001B6972B64FF0E023C3F8084DD4E900045D
:1004E000BFF34F8FBFF36F8F224AC2F88410BFF360
:1004F0004F8F536923F480335361BFF34F8FD2F88A
:10050000803043F6E076C3F3C905C3F34E335B0195
:1005100003EA060C29464CEA81770139C2F8747265
:10052000F9D2203B13F1200FF2D1BFF34F8FBFF36D
:100530006F8FBFF34F8FBFF36F8F536923F4003377
:1005400053610023C2F85032BFF34F8FBFF36F8F58
:10055000202383F31188854680F308882047F8BD5F
:10056000008000082080000800220220742202205F
:100570000038024000ED00E02DE9F04F93B0BA4B97
:100580002022FF2100900AA89D6800F0F1FBB74AE5
:100590001378A3B90121B6481170C360202383F3F7
:1005A0001188C3680BB101F0B7FE0023B14A4FF4C4
:1005B0007A71AF4801F074FE002383F31188009B29
:1005C000AD4A03B113600023AC49009C98469B469A
:1005D0001E469A460B705360012000F083FB24B145
:1005E000A54B1B68002B00F00A82002000F074FA73
:1005F0000390039B002BF2DB012000F063FB039BC5
:10060000213B122BE8D801A252F823F0590600082A
:10061000810600080F070008D9050008D905000861
:10062000D9050008A3070008730900088D08000811
:10063000EF080008170900083D090008D90500085F
:100640004F090008D9050008C1090008C7060008BD
:10065000D9050008050A00080220FFF7B9FE0028A6
:1006600040F0F781009B022105A8B8F1000F08BFF8
:100670001C4641F21233ADF8143000F04BFAABE7F0
:100680004FF47A7000F028FA071EEBDB0220FFF728
:100690009FFE0028E6D0013F042F00F2DC81DFE856
:1006A00007F0031D202326000523042105A8059338
:1006B00000F030FA01204FF0000A00FA07F747EA8D
:1006C0000B0B5FFA8BFB00F09FFB26B10BF00B03CB
:1006D0000B2B08BF0024FFF783FE7DE7042162484F
:1006E000E6E704216648E3E704216648E0E74FF0C7
:1006F0001C09484609F1040900F03EFA042105905E
:1007000005A800F007FAB9F12C0FF2D1D2E7002EBC
:10071000A8D00BF00B030B2BA4D10220FFF758FE3F
:10072000074600289ED00120544E00F023FA4FF0D7
:1007300000080220307000F0D5FA5FFA88F94846C8
:1007400000F028FA044690B1484608F1010800F08C
:1007500031FA0028F1D1B846044641F212130221C1
:1007600005A83E46ADF8143000F0D4F934E7012373
:1007700025460220337000F0A5FA3B4B9B68AB4244
:1007800007D9284600F0F8F9013040F067810435B8
:10079000F3E70025394BB8463E461D70364B5D6089
:1007A00091E7002E3FF45EAF0BF00B030B2B7FF4B1
:1007B00059AF0220314B187000F094FA322000F04B
:1007C0008BF9B0F10009FFF64DAF19F003077FF484
:1007D00049AF254A09EB0503926893423FF642AFC1
:1007E000B9F5807F3FF73EAF274BB94501930EDD4A
:1007F0004FF47A7000F070F90390039A002AFFF624
:1008000031AF039A0137019B03F8012BEDE7C820B4
:10081000FFF7DEFD074600283FF424AF1F2D11D857
:10082000C5F120020AAB25F0030017494A451844D8
:1008300028BF4A46019200F075FA019AFF2112483A
:1008400000F096FA4FEAA903C9F387020E49284639
:10085000019300F095FA064600283FF47EAF019B15
:1008600005EB83052FE700BF00220220782302203A
:1008700060220220F90300087C2302207422022057
:100880000422022008220220782202200220FFF700
:100890009FFD00283FF4E6AE00F0B6F900283FF4D3
:1008A000E1AE0027B9466F4B9B68BB4218D91F2F9A
:1008B00011D80A9B01330ED027F0030312AA134468
:1008C00053F8203C05934846042205A9043700F05C
:1008D00045FB8146E7E7384600F04EF90590F2E720
:1008E000CDF81490042105A800F014F9EBE60023DC
:1008F000642104A8049300F003F900287FF4B2AE49
:100900000220FFF765FD00283FF4ACAE049800F02C
:1009100063F90590E6E70023642104A8049300F03E
:10092000EFF800287FF49EAE0220FFF751FD00286B
:100930003FF498AE049800F05FF9EAE70220FFF771
:1009400047FD00283FF48EAE00F06EF9E1E702208B
:10095000FFF73EFD00283FF485AE05A9142000F006
:1009600069F907460421049004A800F0D3F8394639
:10097000B9E7322000F0B0F8071EFFF673AEBB07F0
:100980007FF470AE374A07EB0A03926893423FF652
:1009900069AE0220FFF71CFD00283FF463AE27F08C
:1009A00003075744BA453FF48EAE50460AF1040A95
:1009B00000F0E2F80421059005A800F0ABF8F1E79B
:1009C0004FF47A70FFF704FD00283FF44BAE00F0BF
:1009D0001BF9002844D00A9B01330BD008220AA936
:1009E000002000F0CDF900283AD02022FF210AA8EB
:1009F00000F0BEF9FFF7F4FC1B4801F00DFC13B04A
:100A0000BDE8F08F002E3FF42DAE0BF00B030B2B47
:100A10007FF428AE0023642105A8059300F070F848
:100A2000074600287FF41EAE0220FFF7D1FC814666
:100A300000283FF417AEFFF7D3FC41F2883001F0F5
:100A4000EBFB059800F028FA4E463C4600F0DCF936
:100A5000C2E5064637E64FF0000A03E6B8467CE6F4
:100A600037467AE600220220A08601002DE9F84FE1
:100A70004FF47A7306460D46002402FB03F7DFF8B5
:100A80005080DFF8509098F900305FFA84FA5A1CD1
:100A900001D0A34210D159F824002A4631460368F8
:100AA000D3F820B03B46D847854205D1074B0120FB
:100AB00083F800A0BDE8F88F0134072CE3D14FF490
:100AC000FA7001F0A9FB0020F4E700BFC823022060
:100AD0000C220220D03D0008002307B50246012168
:100AE0000DF107008DF80730FFF7C0FF20B19DF82A
:100AF000070003B05DF804FB4FF0FF30F9E700009A
:100B00000A46042108B5FFF7B1FF80F00100C0B22A
:100B1000404208BD074B0A4630B41978064B53F8DB
:100B20002140014623682046DD69044BAC4630BCB9
:100B3000604700BFC8230220D03D0008A086010006
:100B400070B50A4E00240A4D01F0DAFD30802868A5
:100B50003388834208D901F0CDFD2B68044401336A
:100B6000B4F5004F2B60F2D370BD00BFCA23022042
:100B70008423022001F072BE00F1006000F5004005
:100B80000068704700F10060920000F5004001F03D
:100B9000FDBD0000054B1A68054B1B889B1A83425C
:100BA00002D9104401F0A6BD002070478423022022
:100BB000CA23022038B5074D04462868204401F0B6
:100BC000A1FD28B928682044BDE8384001F0B2BD35
:100BD00038BD00BF8423022010F0030309D1B0F513
:100BE000846F04D200F10050A0F57120036818460C
:100BF00070470023FBE7000000F10050A0F57120D2
:100C0000D0F8200470470000064991F8243033B131
:100C100000230822086A81F82430FFF7B3BF0120BF
:100C2000704700BF88230220014B1868704700BF3F
:100C3000002004E0204B0246F0B518681F4BC0F3BB
:100C40000B06000C1F885D68BE4293F9084022D055
:100C50009F89BE4221D01F8BBE4206D102240C25A3
:100C600005FB04335D6893F90840B0F5805F16D04A
:100C700041F20103984208BF5A24013A013D0B4654
:100C80000A4493420DD215F9016F581C5EB1034618
:100C900000F8016CF5E70024E1E70124DFE74124D7
:100CA000EBE7184605E02C2590421D7001D2981CF8
:100CB0005C70401AF0BD00BF002004E0102202204A
:100CC00000207047022804D1054B4FF480029A613E
:100CD00070470128FCD1024B4FF40002F7E700BF38
:100CE00000080240022803D1044B40229A61704759
:100CF0000128FCD1014B8022F8E700BF0008024028
:100D0000022805D1064A536983F0400353617047B6
:100D10000128FCD1024A536983F08003F6E700BF43
:100D200000080240002310B5934203D0CC5CC454A9
:100D30000133F9E710BD0000013810B510F9013F8B
:100D40003BB191F900409C4203D11AB10131013A03
:100D5000F4E71AB191F90020981A10BD1046FCE78B
:100D600003460246D01A12F9011B0029FAD1704736
:100D700002440346934202D003F8011BFAE770478E
:100D80002DE9F8431F4D14460746884695F8242060
:100D900052BBDFF870909CB395F824302BB9202219
:100DA000FF2148462F62FFF7E3FF95F824004146F4
:100DB000C0F1080205EB8000A24228BF2246D6B24D
:100DC0009200FFF7AFFF95F82430A41B17441E4490
:100DD0009044E4B2F6B2082E85F82460DBD1FFF728
:100DE00013FF0028D7D108E02B6A03EB820383426C
:100DF000CFD0FFF709FF0028CBD10020BDE8F88352
:100E00000120FBE788230220024B1A78024B1A705C
:100E1000704700BFC82302200C220220F8B5184CEE
:100E2000184800F02BFD2146164800F053FD2468B9
:100E30001548E26E154ED2F80438154D43F0020302
:100E4000104FC2F8043801F0E7F92046114900F0CC
:100E500049FEE26E0724D2F8043823F00203C2F8F8
:100E600004384FF4E133336055F8040BB84202D034
:100E7000314600F063FC013C14F0FF04F4D1F8BDEE
:100E8000F03E00089034022040420F00B0230220C0
:100E9000D03D0008F83E000838B50B4B04461A78E0
:100EA0000A4B53F822500A4B9D420CD0094B0021AB
:100EB00018221846FFF75CFF046001462846BDE88B
:100EC000384000F03BBC38BDC8230220D03D0008AC
:100ED00090340220B0230220FEE7000000B59BB052
:100EE000EFF3098168226846FFF71CFFEFF30583E3
:100EF000044B9A6BDA6A9A6A9A6A9A6A9A6A9A6A46
:100F00009B6AFEE700ED00E000B59BB0EFF30981BE
:100F100068226846FFF706FFEFF30583044B9A6BE0
:100F20009A6A9A6A9A6A9A6A9A6A9B6AFEE700BF04
:100F300000ED00E000B59BB0EFF309816822684640
:100F4000FFF7F0FEEFF30583034B5A6B9A6A9A6A38
:100F50009A6A9A6A9B6AFEE700ED00E030B50A449F
:100F6000084D91420DD011F8013B5840082340F341
:100F70000004013B2C4013F0FF0384EA5000F6D13B
:100F8000EFE730BD2083B8ED0023054A1946013351
:100F9000102BC2E9001102F10802F8D1704700BF1E
:100FA000CC230220026843681143016003B1184753
:100FB00070470000024A136843F0C0031360704793
:100FC00000100140024A136843F0C00313607047E9
:100FD00000440040024A136843F0C00313607047A6
:100FE00000480040024A136843F0C0031360704792
:100FF000004C0040024A136843F0C003136070477E
:1010000000140140024A136843F0C00313607047A4
:101010000078004073B54D4C4D4E20464D4D00F0CC
:1010200081FB04F11400009400234FF480724A49BC
:1010300000F042FA4FF48072484904F138000094FD
:10104000474B00F0BBFA474BC4E91736464C2046E5
:1010500000F068FB04F11400009400234FF4807248
:10106000424900F029FA4FF48072414904F13800F6
:101070000094404B00F0A2FA3F4BC4E917353F4CB7
:10108000204600F04FFB04F11400009400234FF4BD
:1010900080723B4900F010FA4FF48072394904F134
:1010A00038000094384B00F089FA384BC4E9173502
:1010B000374C204600F036FB04F114000094002366
:1010C0004FF48072334900F0F7F94FF480723249DF
:1010D00004F138000094314B00F070FA304BC4E951
:1010E0001735304C204600F01DFB04F1140000942D
:1010F00000234FF480722C4900F0DEF94FF4807227
:101100002A4904F138000094294B00F057FA294B82
:10111000C4E91736284C204600F004FB04F1140003
:1011200000234FF480722549009400F0C5F9244B48
:101130004FF48072234904F13800009400F03EFA25
:10114000214BC4E9173502B070BD00BF4C2402200A
:1011500000F36F0680F93703D4260220D42C022036
:10116000B50F000800100140B8240220D427022047
:10117000D42D0220C50F0008004400402425022081
:10118000D4280220D42E0220D50F000800480040A9
:1011900090250220D4290220D42F0220E50F000838
:1011A000004C0040FC250220D42A0220D43002202A
:1011B000F50F00080014014068260220D42B0220FD
:1011C00005100008D431022000780040037C30B5BF
:1011D000424C002918BF0C46012B0FD1404B9842BE
:1011E00039D1404B5A6C42F010025A645A6E42F0A8
:1011F00010025A665B6E3C4B984262D02268036EC6
:10120000C16D03EB52038466B3FBF2F3626815040D
:1012100042BF23F0070503F0070343EA4503CB6011
:10122000A36843F040034B60E36843F001038B6025
:1012300042F4967343F001030B604FF0FF330B62EF
:10124000510505D512F0102244D0B2F1805F43D091
:1012500080F8643030BD254B984213D0244B98421F
:101260001BD0244B984223D0234B9842C3D11D4B13
:101270005A6C42F020025A645A6E42F020025A66BA
:101280005B6EBBE7174B1A6C42F400321A641A6E9D
:1012900042F400321A661B6EADE7124B1A6C42F430
:1012A00080221A641A6E42F480221A661B6EA5E729
:1012B0000C4B1A6C42F400221A641A6E42F400229B
:1012C000F3E7084B1A6C42F080421A641A6E42F03F
:1012D0008042EAE77F23BBE73F23B9E7EC3D000804
:1012E0004C2402200038024068260220B824022044
:1012F0002425022090250220FC2502202DE9F0471C
:10130000C66D05463768F4692107346219D014F0B8
:10131000080118BF8021E20748BF41F02001A30760
:101320004FF0200348BF41F04001600748BF41F43F
:10133000807183F31188281DFFF734FE002383F3A7
:101340001188E2050AD5202383F311884FF4007138
:10135000281DFFF727FE002383F311884FF0200993
:101360004FF0000A14F0200838D13B0616D54FF094
:10137000200905F1380A200610D589F31188504656
:1013800000F050F9002836DA0821281DFFF70AFE80
:1013900027F080033360002383F31188790614D586
:1013A000620612D5202383F31188D5E913239A42CC
:1013B00008D12B6C33B127F040071021281DFFF70F
:1013C000F1FD3760002383F31188E30618D5AA6E78
:1013D0001369ABB15069BDE8F047184789F311882C
:1013E000736A284695F86410194000F0B5F98AF33D
:1013F0001188F469B6E7B06288F31188F469BAE736
:10140000BDE8F087F8B51546826804460B46AA4247
:1014100000D28568A1692669761AB5420BD21846B2
:101420002A46FFF77FFCA3692B44A3612846A368E3
:101430005B1BA360F8BD0CD9AF1B18463246FFF703
:1014400071FC3A46E1683044FFF76CFCE3683B44CA
:10145000EBE718462A46FFF765FCE368E5E700007E
:1014600083689342F7B50446154600D28568D4E9EF
:101470000460361AB5420BD22A46FFF753FC636963
:101480002B4463612846A3685B1BA36003B0F0BDD7
:101490000DD93246AF1B0191FFF744FC01993A4642
:1014A000E0683144FFF73EFCE3683B44E9E72A4645
:1014B000FFF738FCE368E4E710B50A440024C36191
:1014C000029B8460C16002610362C0E90000C0E960
:1014D000051110BD08B5D0E90532934201D18268EB
:1014E00082B98268013282605A1C426119700021FF
:1014F000D0E904329A4224BFC368436100F0A8FED9
:10150000002008BD4FF0FF30FBE7000070B520233E
:1015100004460E4683F31188A568A5B1A368A269A5
:10152000013BA360531CA36115782269934224BF39
:10153000E368A361E3690BB120469847002383F376
:101540001188284607E03146204600F071FE002849
:10155000E2DA85F3118870BD2DE9F74F04460E4697
:1015600017469846D0F81C904FF0200A8AF311884D
:101570004FF0000B154665B12A4631462046FFF76D
:1015800041FF034660B94146204600F051FE002865
:10159000F1D0002383F31188781B03B0BDE8F08FEE
:1015A000B9F1000F03D001902046C847019B8BF38F
:1015B0001188ED1A1E448AF31188DCE7C160C3610B
:1015C000009B82600362C0E905111144C0E900007C
:1015D00001617047F8B504460D461646202383F393
:1015E0001188A768A7B1A368013BA36063695A1C6F
:1015F00062611D70D4E904329A4224BFE3686361DA
:10160000E3690BB120469847002080F3118807E07A
:101610003146204600F00CFE0028E2DA87F31188FC
:10162000F8BD0000D0E9052310B59A4201D18268C7
:101630007AB982680021013282605A1C82611C786A
:1016400003699A4224BFC368836100F001FE20460B
:1016500010BD4FF0FF30FBE72DE9F74F04460E4673
:1016600017469846D0F81C904FF0200A8AF311884C
:101670004FF0000B154665B12A4631462046FFF76C
:10168000EFFE034660B94146204600F0D1FD002838
:10169000F1D0002383F31188781B03B0BDE8F08FED
:1016A000B9F1000F03D001902046C847019B8BF38E
:1016B0001188ED1A1E448AF31188DCE7026843683A
:1016C0001143016003B11847704700001430FFF761
:1016D00043BF00004FF0FF331430FFF73DBF000061
:1016E0003830FFF7B9BF00004FF0FF333830FFF755
:1016F000B3BF00001430FFF709BF00004FF0FF3107
:101700001430FFF703BF00003830FFF763BF00005D
:101710004FF0FF323830FFF75DBF00000020704708
:10172000FFF778BC044B036000234360C0E9023339
:1017300001230374704700BF043E000810B5202346
:10174000044683F31188FFF741FD0223237400232D
:1017500083F3118810BD000038B5C36904460D46F7
:101760001BB904210844FFF7A9FF294604F114001E
:10177000FFF7B0FE002806DA201D4FF48061BDE8B7
:101780003840FFF79BBF38BD0268436811430160D2
:1017900003B118477047000013B5446BD4F8A43860
:1017A0001A681178042915D1217C022912D11979DE
:1017B000012312898B4013420CD101A904F14C0082
:1017C00001F030FFD4F8A4480246019B217920683B
:1017D00000F0D4F902B010BD143001F0B3BE000027
:1017E0004FF0FF33143001F0ADBE00004C3001F07B
:1017F00085BF00004FF0FF334C3001F07FBF000089
:10180000143001F081BE00004FF0FF31143001F0C0
:101810007BBE00004C3001F051BF00004FF0FF32A2
:101820004C3001F04BBF000000207047D0F8A438C6
:101830001A6810B511780446042917D1017C0229D1
:1018400014D15979012352898B4013420ED114309F
:1018500001F014FE024648B1D4F8A4484FF4807356
:1018600061792068BDE8104000F076B910BD000035
:10187000406BFFF7DBBF0000704700007FB5124BE5
:1018800001250426044603600023057400F1840248
:1018900043602946C0E902330C4B02901430019397
:1018A0004FF48073009601F0C5FD094B04F2944299
:1018B000294604F14C000294CDE900634FF4807393
:1018C00001F08CFE04B070BD2C3E000871180008B9
:1018D000991700080B68202282F311880A7903EB1C
:1018E000820210624A790D3243F822008A7912B1DD
:1018F00003EB820318620223C0F8A41803740023C8
:1019000083F311887047000038B5037F044613B194
:1019100090F85430ABB90125201D0221FFF734FFA8
:1019200004F114006FF00101257700F09DFC04F133
:101930004C0084F854506FF00101BDE8384000F0CD
:1019400093BC38BD10B5012104460430FFF71CFFDD
:101950000023237784F8543010BD000038B50446C6
:101960000025143001F07EFD04F14C00257701F0D4
:101970004DFE201D84F854500121FFF705FF20463D
:10198000BDE83840FFF752BF90F85C3003F06003C9
:10199000202B06D190F85D200023212A03D81F2A8E
:1019A00006D800207047222AFBD1C0E9143303E097
:1019B000034A02650722426583650120704700BF24
:1019C00034220220D0F8A43837B51A6804461178BA
:1019D00004291AD1017C022917D11979012312890E
:1019E0008B40134211D100F14C05284601F0CEFE88
:1019F00058B101A9284601F015FED4F8A4480246C2
:101A0000019B2179206800F0B9F803B030BD0000D7
:101A100000EB8103F0B51E6A85B004460D46FEB1A9
:101A2000202383F3118804EB8507301D0821FFF77D
:101A3000ABFEFB6806F14C005B691B681BB10190B3
:101A400001F0FEFD019803A901F0ECFD024648B14A
:101A5000039B2946204600F091F8002383F3118868
:101A600005B0F0BDFB685A691268002AF5D01B8AE0
:101A7000013B1340F1D104F15C02EAE70D3138B5C6
:101A800050F82140DCB1202383F31188D4F8A42836
:101A90001368527903EB8203DB689B695D6845B18B
:101AA00004216018FFF770FE294604F1140001F0CC
:101AB000EFFC2046FFF7BAFE002383F3118838BD00
:101AC0007047000001F088B801232822002110B5DA
:101AD000044600F8243BFFF74BF90023C4E9013327
:101AE00010BD000038B50446202383F3118800257B
:101AF0004160C0E90355C0E90555C0E9075501F04B
:101B00007BF80223237085F3118838BD70B500EB94
:101B10008103054650690E461446DA6018B110225A
:101B20000021FFF725F9A06918B110220021FFF765
:101B30001FF931462846BDE8704001F027B9000082
:101B4000826802F0011282600022C0E90422C0E92A
:101B50000622026201F0A6B9F0B4012500EB81046F
:101B600047898D40E4683D43A46945812360002393
:101B7000A2606360F0BC01F0C1B90000F0B40125BF
:101B800000EB810407898D40E4683D436469058169
:101B900023600023A2606360F0BC01F03BBA000048
:101BA00070B502230025044603704566056280F87F
:101BB0004C50C0E90255C0E90455C0E9065501F092
:101BC00081F863681B6823B129462046BDE8704050
:101BD000184770BD037880F86830052303704368A8
:101BE0001B6810B504460BB1042198470023A3607D
:101BF00010BD000090F86820436802701B680BB1AC
:101C0000052118477047000070B590F84C30044625
:101C100013B1002380F84C3004F15C02204601F03F
:101C200063F963689B68B3B994F85C3013F060059E
:101C300035D00021204601F0C9FB0021204601F0EB
:101C4000BBFB63681B6813B1062120469847062337
:101C500084F84C3070BD204698470028E4D0B4F892
:101C60006230626D9A4288BF636594F95C30656D3D
:101C7000002B4FF0200380F20381002D00F0F28052
:101C8000092284F84C2083F3118800212046D4E9EE
:101C90001423FFF773FF002383F31188DAE794F826
:101CA0005D2003F07F0343EA022340F202329342B5
:101CB00000F0C58021D8B3F5807F48D00DD8012B26
:101CC0003FD0022B00F09380002BB2D104F16402CC
:101CD000226502226265A365C1E7B3F5817F00F04A
:101CE0009B80B3F5407FA4D194F85E30012BA0D146
:101CF000B4F8643043F0020332E0B3F5006F4DD026
:101D000017D8B3F5A06F31D0A3F5C063012B90D8DD
:101D10006368204694F85E205E6894F85F10B4F81B
:101D20006030B047002884D043682365036863654A
:101D30001AE0B3F5106F36D040F6024293427FF4BA
:101D400078AF5C4B2365022363650023C3E794F8F7
:101D50005E30012B7FF46DAFB4F8643023F00203E2
:101D6000A4F86430C4E91455A56578E7B4F85C308C
:101D7000B3F5A06F0ED194F85E30204684F866303B
:101D800000F0F8FF63681B6813B1012120469847F3
:101D9000032323700023C4E914339CE704F1670391
:101DA00023650123C3E72378042B10D1202383F379
:101DB00011882046FFF7C4FE85F31188032163686C
:101DC00084F8675021701B680BB12046984794F83F
:101DD0005E30002BDED084F8673004232370636804
:101DE0001B68002BD6D0022120469847D2E794F8F2
:101DF000603020461D0603F00F010AD501F066F899
:101E0000012804D002287FF414AF2B4B9AE72B4B08
:101E100098E701F04DF8F3E794F85E30002B7FF47B
:101E200008AF94F8603013F00F01B3D01A062046C3
:101E300002D501F0DFFAADE701F0D2FAAAE794F893
:101E40005E30002B7FF4F5AE94F8603013F00F0194
:101E5000A0D01B06204602D501F0B8FA9AE701F09F
:101E6000ABFA97E7142284F84C2083F311882B46B1
:101E70002A4629462046FFF76FFE85F31188E9E6DA
:101E80005DB1152284F84C2083F31188002120468F
:101E9000D4E91423FFF760FEFDE60B2284F84C2002
:101EA00083F311882B462A4629462046FFF766FE13
:101EB000E3E700BF5C3E0008543E0008583E0008BF
:101EC00038B590F84C300446002B3ED0063BDAB2D1
:101ED0000F2A34D80F2B32D8DFE803F0373131081E
:101EE000223231313131313131313737456DB0F84E
:101EF00062309D4214D2C3681B8AB5FBF3F203FB28
:101F000012556DB9202383F311882B462A462946A2
:101F1000FFF734FE85F311880A2384F84C300EE075
:101F2000142384F84C30202383F3118800232046A7
:101F30001A461946FFF710FE002383F3118838BDB7
:101F4000836D03B198470023E7E70021204601F0A5
:101F50003DFA0021204601F02FFA63681B6813B197
:101F60000621204698470623D7E7000010B590F8D1
:101F70004C300446142B29D017D8062B05D001D895
:101F80001BB110BD093B022BFBD80021204601F0FC
:101F90001DFA0021204601F00FFA63681B6813B197
:101FA000062120469847062319E0152BE9D10B237B
:101FB00080F84C30202383F3118800231A461946F9
:101FC000FFF7DCFD002383F31188DAE7C3689B6920
:101FD0005B68002BD5D1836D03B19847002384F84B
:101FE0004C30CEE7024B0022C3E900339A607047C1
:101FF000D4320220002382680374054B1B68996861
:102000009142FBD25A68036042601060586070478A
:10201000D432022008B5202383F31188037C032BDC
:1020200005D0042B0DD02BB983F3118808BD43696B
:1020300000221A604FF0FF334361FFF7DBFF0023FC
:10204000F2E7D0E9003213605A60F3E700238268B8
:102050000374054B1B6899689142FBD85A6803606A
:102060004260106058607047D4320220054B1969F5
:1020700008741868026853601A60186101230374B9
:10208000FEF754B9D43202204B1C30B5044687B059
:102090000A4D10D02B6901A8094A00F001F9204629
:1020A000FFF7E4FF049B13B101A800F035F92B6999
:1020B000586907B030BDFFF7D9FFF8E7D4320220E6
:1020C0001520000838B50C4D044641612B69816824
:1020D0009A68914203D8BDE83840FFF78BBF184695
:1020E000FFF7B4FF01232C61014623742046BDE8AD
:1020F0003840FEF71BB900BFD4320220044B1A68E7
:102100001B6990689B68984294BF0020012070472B
:10211000D432022010B5084C236820691A68546034
:102120002260012223611A74FFF790FF01462069A3
:10213000BDE81040FEF7FAB8D4320220FFF7EABF3C
:10214000FEE7000010B50C4CFFF74CFF00F09AF8CA
:1021500080220A49204600F021F8012344F8180C97
:10216000037400F015FC002383F3118862B6044861
:10217000BDE8104000F032B8FC320220603E00089A
:10218000703E000800F002B9034A516853685B1AB8
:102190009842FBD8704700BF001000E08260022226
:1021A000028270478368A3F17C0243F80C2C026919
:1021B00043F83C2C426943F8382C074A43F81C2C5E
:1021C000C268A3F1180043F8102C022203F8082C6F
:1021D000002203F8072C70474503000810B52023A0
:1021E00083F31188FFF7DEFF00210446FFF76AFF43
:1021F000002383F31188204610BD0000024B1B69A9
:1022000058610F20FFF732BFD4320220202383F31E
:102210001188FFF7F3BF000008B50146202383F3C0
:1022200011880820FFF730FF002383F3118808BDD1
:1022300049B1064B42681B6918605A6013604360DD
:102240000420FFF721BF4FF0FF307047D432022047
:102250000368984206D01A680260506018465961B7
:10226000FFF7C8BE7047000038B504460D46206829
:10227000844200D138BD036823605C604561FFF78C
:10228000B9FEF4E7054B4FF0FF3103F11402C3E947
:1022900005220022C3E90712704700BFD432022092
:1022A00070B51C4E05460C46C0E9032301F0A0FAA8
:1022B000334653F8142F9A420DD130620A2C2CBFAA
:1022C00000190A302A60C5E90124C6E90555BDE8B0
:1022D000704001F07BBA316A431AE31838BF1C46DC
:1022E0009368A34202D9081901F07EFA73699A68CB
:1022F00094420CD85A68AC602B606A6015609A688A
:102300005D60121B9A604FF0FF33F36170BDA41A39
:102310001B68ECE7D432022038B51B4C6369984245
:102320000DD08168D0E9003213605A600022C2608B
:102330009A680A449A604FF0FF33E36138BD03683E
:102340002246002142F8143F93425A60C16003D1F3
:10235000BDE8384001F042BA9A688168256A0A44AB
:102360009A6001F045FA6369411B9A688A42E5D98F
:10237000AB181D1A206A092D98BF01F10A02BDE8A9
:102380003840104401F030BAD43202202DE9F04137
:10239000184C002704F11406656901F029FA236A34
:1023A000AA68C11A8A4215D81344D5F80C80236252
:1023B000D5E9003213605A606369EF60B34201D11E
:1023C00001F00CFA87F311882869C047202383F3B2
:1023D0001188E1E76169B14209D013441B1ABDE8D5
:1023E000F0410A2B2CBFC0180A3001F0FDB9BDE83E
:1023F000F08100BFD432022000207047FEE70000C9
:10240000704700004FF0FF307047000002290CD0E9
:10241000032904D00129074818BF00207047032A68
:1024200005D8054800EBC2007047044870470020FB
:10243000704700BF543F00083C220220083F0008BC
:1024400070B59AB005460846144601A900F098F800
:1024500001A8FEF785FC431C0022C6B25B001046B3
:10246000C5E9003423700323023404F8013C01ABB6
:10247000D1B202348E4201D81AB070BD13F8011BDC
:10248000013204F8010C04F8021CF1E708B520231E
:1024900083F311880348FFF795FA002383F311882B
:1024A00008BD00BF9034022007B5052917D8DFE822
:1024B00001F0191603191920202383F31188104AFB
:1024C00001210190FFF722FB019802210D4AFFF73D
:1024D0001DFB0D48FFF742FA002383F3118803B078
:1024E0005DF804FB202383F311880748FFF70CFAFB
:1024F000F2E7202383F311880348FFF723FAEBE781
:10250000A83E0008CC3E00089034022038B50C4D9F
:102510000C4C2A460C4904F10800FFF791FF05F125
:10252000CA0204F110000949FFF78AFF05F5CA72D3
:1025300004F118000649BDE83840FFF781BF00BF2D
:10254000683D02203C220220883E0008923E00089E
:102550009D3E000870B5044608460D46FEF700FC97
:10256000C6B22046013403780BB9184670BD324616
:102570002946FEF7E1FB0028F3D10120F6E7000031
:102580002DE9F84F05460C46FEF7EAFB2A49C6B28C
:102590002846FFF7DFFF08B1013EF6B2274928467B
:1025A000FFF7D8FF08B11036F6B2632E0DD8DFF86A
:1025B0008890DFF888A0224FDFF88CB0DFF88C809D
:1025C0002E7846B92670BDE8F88F29462046BDE82A
:1025D000F84F01F0DFBB252E2AD1072249462846B5
:1025E000FEF7AAFB50B9D8F800300735063444F896
:1025F000063CB8F8043024F8023CE1E708225146D2
:102600002846FEF799FB98B9A21C0E4B19780232A6
:102610000909C95D02F8041C13F8011B01F00F0140
:102620005B45C95D02F8031CF0D118340835C7E7D3
:10263000013504F8016BC3E7743F00089D3E0008B4
:10264000833F000820F4F01F2CF4F01F7C3F0008AB
:10265000BFF34F8F024AD368DB03FCD4704700BF3F
:10266000003C024008B5074B1B7853B9FFF7F0FF59
:10267000054B1A69002A04DA044A5A6002F18832CA
:102680005A6008BDC63F0220003C02402301674556
:1026900008B5054B1B7833B9FFF7DAFF034A136916
:1026A00043F00043136108BDC63F0220003C0240D6
:1026B0000B28F0B516D80C4C0C4923787BB90E4684
:1026C0000B4D0C234FF00062013B55F8047B46F89C
:1026D000042B13F0FF033A44F6D10123237051F881
:1026E0002000F0BD0020FCE7F83F0220C83F022098
:1026F000943F0008014B53F820007047943F0008B6
:102700000C2070470B2810B5044601D9002010BDDD
:10271000FFF7CEFF064B53F824301844C21A0BB90A
:102720000120F4E712680132F0D1043BF6E700BF64
:10273000943F00080B2810B5044621D8FFF788FF06
:10274000FFF790FF0F4AF323D360C300DBB243F4DB
:10275000007343F002031361136943F48033136180
:10276000FFF776FFFFF7A4FF074B53F8241000F0A4
:10277000D9F82046FFF78CFFBDE81040FFF7C2BF35
:10278000002010BD003C0240943F0008F8B512F054
:102790000103144642D18218B2F1026F57D22D4B79
:1027A0001B6813F0010352D0FFF75CFF2A4DF3239F
:1027B00040F20127EB60FFF74BFF032C15D824F004
:1027C0000104401A40F201176618234CB14200EB95
:1027D0000105236924D123F0010301202361FFF7C0
:1027E00057FFF8BD043C0430E7E78307E7D12B69C6
:1027F00023F440732B612B693B432B6151F8046B2D
:102800000660BFF34F8FFFF723FF03689E42E9D0B6
:102810002B6923F001032B61FFF73AFF0020E0E76B
:1028200023F44073236123693B4323610B882B808E
:10283000BFF34F8FFFF70CFF2D88ADB231F8023B8D
:10284000AB42C3D0236923F001032361E4E71846B8
:10285000C7E700BF00380240003C0240084908B505
:102860000B7828B11BB9FFF7FDFE01230B7008BDE3
:10287000002BFCD00870BDE80840FFF709BF00BF7F
:10288000C63F02200244074BD2B210B5904200D19D
:1028900010BD441C00B253F8200041F8040BE0B214
:1028A000F4E700BF502800400F4B30B51C6F2404E4
:1028B00007D41C6F44F400741C671C6F44F400447C
:1028C0001C670A4C02442368D2B243F4807323602D
:1028D000074B904200D130BD441C51F8045B00B25C
:1028E00043F82050E0B2F4E70038024000700040A6
:1028F0005028004007B5012201A90020FFF7C2FFC0
:10290000019803B05DF804FB13B50446FFF7F2FF2E
:10291000A04205D0012201A900200194FFF7C4FFC5
:1029200002B010BD0144BFF34F8F064B884204D361
:10293000BFF34F8FBFF36F8F7047C3F85C02203037
:10294000F4E700BF00ED00E0044BD3F874389B00BF
:1029500042BF034B01221A70704700BF0030024093
:10296000F93F0220014B1878704700BFF93F022061
:10297000EFF30983054968334A6B22F001024A6389
:1029800083F30988002383F31188704700EF00E088
:10299000202080F3118862B60D4B0E4AD96821F4CD
:1029A000E0610904090C0A430B49DA60D3F8FC2002
:1029B00042F08072C3F8FC20084AC2F8B01F1168C8
:1029C00041F0010111601022DA7783F8220070478C
:1029D00000ED00E00003FA0555CEACC5001000E0A4
:1029E000202310B583F311880E4B5B6813F400634A
:1029F00014D0F1EE103AEFF309844FF08073683C85
:102A0000E361094BDB6B236684F30988FFF776FBF0
:102A100010B1064BA36110BD054BFBE783F3118892
:102A2000F9E700BF00ED00E000EF00E05703000809
:102A30005A03000870B5BFF34F8FBFF36F8F1A4A68
:102A40000021C2F85012BFF34F8FBFF36F8F53694D
:102A500043F400335361BFF34F8FBFF36F8FC2F85E
:102A60008410BFF34F8FD2F8803043F6E074C3F385
:102A7000C900C3F34E335B0103EA0406014646EA8C
:102A800081750139C2F86052F9D2203B13F1200F51
:102A9000F2D1BFF34F8F536943F480335361BFF3D7
:102AA0004F8FBFF36F8F70BD00ED00E0FEE70000B9
:102AB0000A4B0B480B4A90420BD30B4BC11EDA1C3E
:102AC000121A22F003028B4238BF00220021FEF7C7
:102AD0004FB953F8041B40F8041BECE7844100088D
:102AE0008C4002208C4002208C4002207047000065
:102AF00070B5D0E91B4300224FF0FF359E6804EB10
:102B000042135101D3F80009002805DAD3F800096F
:102B100040F08040C3F80009D3F8000B002805DA24
:102B2000D3F8000B40F08040C3F8000B013263186B
:102B30009642C3F80859C3F8085BE0D24FF001137E
:102B4000C4F81C3870BD00001D4B03EB8002D2F8A6
:102B50000CC02DE9F043DCF81420461CDD6ED2F8E1
:102B600000E005EB063605EB4018516871450AD3C5
:102B70000122D5F8343802FA00F023EA0000C5F843
:102B80003408BDE8F083AEEB0103BCF81040A3426B
:102B900028BF2346D8F81849A4B2B3EB840FF0D865
:102BA0009468A4F1040959F8047F3760A4EB09077D
:102BB0001F44042FF7D81C440B4494605360D4E79F
:102BC000FC3F0220890141F02001016103699B065D
:102BD000FCD41220FFF7D8BA10B5054C2046FEF7FA
:102BE00073FF4FF0A043E366024B236710BD00BFA5
:102BF000FC3F0220E83F000870B503780546012B32
:102C000050D12A4BC46E98421BD1294B0E21432030
:102C10005A6B42F080025A635A6D42F080025A6544
:102C20005A6D5A6942F080025A615A6922F0800254
:102C30005A615B6900F0E8FB1E4BE3601E4BC4F871
:102C400000380023EE6EC4F8003EC02323604FF42A
:102C50000413A3633369002BFCDA01230C203361D6
:102C6000FFF792FA3369DB07FCD41220FFF78CFAE6
:102C70003369002BFCDA00262846A660FFF738FFF0
:102C80006B68C4F81068DB68C4F81468C4F81C6882
:102C90004BB90A4BA3614FF0FF336361A36843F064
:102CA0000103A36070BD064BF4E700BFFC3F0220A8
:102CB000003802404014004003002002003C30C0B5
:102CC000083C30C0F8B5C46E054600214FF00066E0
:102CD0002046FFF777FF296F00234FF001128F681E
:102CE0004FF0FF30C4F83438C4F81C2804EB43120A
:102CF00001339F42C2F80069C2F8006BC2F80809AC
:102D0000C2F8080BF2D20B68EA6E6B67636210239D
:102D10001361166916F01006FBD11220FFF734FA82
:102D2000D4F8003823F4FE63C4F80038A36943F4F0
:102D3000402343F01003A3610923C4F81038C4F8FA
:102D400014380A4BEB604FF0C043C4F8103B084BFB
:102D5000C4F8003BC4F81069C4F800396B6F03F184
:102D6000100243F480136A67A362F8BDC43F0008F1
:102D700040800010C26E90F86610D2F8003823F43C
:102D8000FE6343EA0113C2F8003870472DE9F843A7
:102D900000EB8103C56E0C468046DA680FFA81F9B4
:102DA0004801166806F00306731E022B05EB41135B
:102DB0004FF0000194BFB604384EC3F8101B4FF01B
:102DC000010104F1100398BF06F1805601FA03F3E4
:102DD000916998BF06F5004600293AD0578A04F158
:102DE0005801374349016F50D5F81C180B43002197
:102DF000C5F81C382B180127C3F81019A7405369D0
:102E0000611E9BB3138A928B9B08012A88BF534390
:102E1000D8F87420981842EA034301F14002214691
:102E2000C8F87400284605EB82025360FFF7CAFE1B
:102E300008EB8900C3681B8A43EA845348341E4365
:102E400064012E51D5F81C381F43C5F81C78BDE825
:102E5000F88305EB4917D7F8001B21F40041C7F8A8
:102E6000001BD5F81C1821EA0303C0E704F13F0357
:102E70000B4A2846214605EB83035A60FFF7A2FE62
:102E800005EB4910D0F8003923F40043C0F80039AD
:102E9000D5F81C3823EA0707D7E700BF00800010E9
:102EA00000040002026F12684267FFF721BE0000B3
:102EB0005831C36E49015B5813F4004004D013F439
:102EC000001F0CBF02200120704700004831C36E74
:102ED00049015B5813F4004004D013F4001F0CBFE9
:102EE000022001207047000000EB8101CB68196AC5
:102EF0000B6813604B6853607047000000EB810360
:102F000030B5DD68AA691368D36019B9402B84BF56
:102F1000402313606B8A1468C26E1C4402EB41109C
:102F2000013C09B2B4FBF3F46343033323F003031E
:102F300043EAC44343F0C043C0F8103B2B6803F09E
:102F40000303012B0ED1D2F8083802EB411013F421
:102F5000807FD0F8003B14BF43F0805343F0005310
:102F6000C0F8003B02EB4112D2F8003B43F00443AF
:102F7000C2F8003B30BD00002DE9F041244D04466D
:102F8000EE6E06EB4013D3F8087B3807C3F8087BD6
:102F90000AD5D6F81438190706D505EB840321465F
:102FA0002846DB685B689847FA071FD5D6F81438BF
:102FB000DB071BD505EB8403D968CCB98B69488A3C
:102FC0005A68B2FBF0F600FB16228AB91868DA6874
:102FD00090420DD2121AC3E90024202383F31188F2
:102FE0000B482146FFF78AFF84F31188BDE8F08182
:102FF000012303FA04F26B8923EA02036B81CB6895
:10300000002BF3D021460248BDE8F041184700BF2D
:10301000FC3F022000EB81034A0170B5DD68C36EFE
:103020006C692668E66056BB1A444FF40020C2F86B
:1030300010092A6802F00302012A0AB20ED1D3F85D
:10304000080803EB421410F4807FD4F8000914BF81
:1030500040F0805040F00050C4F8000903EB4212E9
:10306000D2F8000940F00440C2F800090122D3F868
:10307000340802FA01F10143C3F8341870BD19B9DC
:10308000402E84BF4020206020681A442E8A841974
:10309000013CB4FBF6F440EAC44040F00050C6E7FF
:1030A000F8B504461E48C56E05EB4413D3F808690D
:1030B000F107C3F8086917D5D5F81038DA0713D522
:1030C00000EB8403D9684B691F68DA68974218D20D
:1030D000D21B00271A605F60202383F311882146EA
:1030E000FFF798FF87F31188330617D50123D5F82A
:1030F0003428A340134211D02046BDE8F840FFF722
:1031000023BD012303FA04F2038923EA02030381A6
:103110008B68002BE8D021469847E5E7F8BD00BF53
:10312000FC3F02202DE9F74FA24CE66E7569B369AA
:103130001D4015F48058756107D02046FEF730FD1C
:1031400003B0BDE8F04FFFF74BBC002D12DAD6F804
:10315000003E9F0705D0D6F8003E23F00303C6F8D3
:10316000003ED6F80438934823F00103C6F804382B
:10317000FEF740FD280505D58E48FFF7B9FC8D48C0
:10318000FEF728FDA9040CD5D6F8083813F0060F71
:10319000F36823F470530CBF43F4105343F4A0536B
:1031A000F3602A0704D56368DB680BB18148984750
:1031B000EB0200F18A80AF0227D5D4F86C9000278B
:1031C0004FF0010ADFF8ECB109EB4712D2F8003BEF
:1031D00003F44023B3F5802F11D1D2F8003B002B2C
:1031E0000DDA62890AFA07F322EA0303638104EB2A
:1031F0008703DB68DB6813B13946584698470137C7
:10320000236FFFB29B689F42DED9E80618D5E76EB0
:103210003A6AC2F30A1002F00F0302F4F012B2F598
:10322000802F00F09C80B2F5402F09D104EB83037E
:10323000002207F58057DB681B6A904240F08280CD
:103240002B03D6F818481DD5E70302D50020FFF759
:1032500093FEA60302D50120FFF78EFE600302D580
:103260000220FFF789FE210302D50320FFF784FE29
:10327000E20202D50420FFF77FFEA30202D505205B
:10328000FFF77AFE6F037FF55BAFE60702D50020FC
:10329000FFF706FFA50702D50120FFF701FF600732
:1032A00002D50220FFF7FCFE210702D50320FFF71D
:1032B000F7FEE20602D50420FFF7F2FEA3067FF533
:1032C0003FAF0520FFF7ECFE3AE7E36E00274FF033
:1032D000010ADFF8E0B00193236F5FFA87F99B687A
:1032E00099453FF668AF019B03EB4913D3F80029DA
:1032F00002F44022B2F5802F22D1D3F80029002A0F
:103300001EDAD3F8002942F09042C3F80029D3F81E
:103310000029002AFBDB4946E06EFFF753FC2289B7
:103320000AFA09F322EA0303238104EB8903DB6829
:103330009B6813B14946584698474846FFF704FC36
:103340000137C9E7910701D1D7F80080072A02F1B8
:1033500001029CBF03F8018B4FEA18286DE7023386
:1033600007F5805704EB83025268D2F818C0DCF8E6
:103370000820DCE9001CA1EB0C0C002188420AD1DA
:1033800004EB830463689B699A6802449A605A68F4
:1033900002445A6054E711F0030F01D1D7F80080BE
:1033A0008C4501F1010184BF02F8018B4FEA182816
:1033B000E4E700BFFC3F0220C36E03EB4111D1F8EC
:1033C000003B43F40013C1F8003B7047C36E03EBAE
:1033D0004111D1F8003943F40013C1F800397047A6
:1033E000C36E03EB4111D1F8003B23F40013C1F885
:1033F000003B7047C36E03EB4111D1F8003923F451
:103400000013C1F800397047090100F1604301223F
:1034100003F56143C9B283F8001300F01F039A401B
:1034200043099B0003F1604303F56143C3F8802126
:103430001A60704730B50433039C0172002104FB0D
:103440000325C160C0E90653049B0363059BC0E9E3
:103450000000C0E90422C0E90842C0E90A11436340
:1034600030BD00000022416AC260C0E90411C0E919
:103470000A226FF00101FEF7F7BE0000D0E9043226
:10348000934201D1C2680AB9181D704700207047E5
:10349000036919600021C2680132C260C269134425
:1034A00082699342036124BF436A0361FEF7D0BE81
:1034B00038B504460D46E3683BB162690020131D30
:1034C0001268A3621344E36207E0237A33B9294602
:1034D0002046FEF7ADFE0028EDDA38BD6FF00100A2
:1034E000FBE70000C368C269013BC3604369134442
:1034F00082699342436124BF436A4361002383622C
:10350000036B03B11847704770B52023044683F35B
:103510001188866A3EB9FFF7CBFF054618B186F3DE
:103520001188284670BDA36AE26A13F8015B9342D2
:10353000A36202D32046FFF7D5FF002383F311884F
:10354000EFE700002DE9F84F04460E46174698466F
:103550004FF0200989F311880025AA46D4F828B035
:10356000BBF1000F09D141462046FFF7A1FF20B172
:103570008BF311882846BDE8F88FD4E90A12A7EB2F
:10358000050B521A934528BF9346BBF1400F1BD938
:10359000334601F1400251F8040B914243F8040B09
:1035A000F9D1A36A403640354033A362D4E90A23F7
:1035B0009A4202D32046FFF795FF8AF31188BD4255
:1035C000D8D289F31188C9E730465A46FDF7AAFBDD
:1035D000A36A5E445D445B44A362E7E710B5029CC6
:1035E0000433017204FB0321C460C0E90613002305
:1035F000C0E90A33039B0363049BC0E90000C0E9F0
:103600000422C0E90842436310BD0000026A6FF063
:103610000101C260426AC0E904220022C0E90A2214
:10362000FEF722BED0E904239A4201D1C26822B932
:10363000184650F8043B0B607047002070470000AC
:10364000C3680021C2690133C360436913448269BE
:103650009342436124BF436A4361FEF7F9BD000012
:1036600038B504460D46E3683BB1236900201A1DB6
:10367000A262E2691344E36207E0237A33B9294680
:103680002046FEF7D5FD0028EDDA38BD6FF00100C9
:10369000FBE7000003691960C268013AC260C269B1
:1036A000134482699342036124BF436A0361002388
:1036B0008362036B03B118477047000070B5202385
:1036C0000D460446114683F31188866A2EB9FFF72A
:1036D000C7FF10B186F3118870BDA36A1D70A36A7D
:1036E000E26A01339342A36204D3E16920460439BC
:1036F000FFF7D0FF002080F31188EDE72DE9F84FA8
:1037000004460D46904699464FF0200A8AF31188E8
:103710000026B346A76A4FB949462046FFF7A0FFE7
:1037200020B187F311883046BDE8F88FD4E90A0745
:103730003A1AA8EB0607974228BF1746402F1BD915
:1037400005F1400355F8042B9D4240F8042BF9D1B4
:10375000A36A40364033A362D4E90A239A4204D3D1
:10376000E16920460439FFF795FF8BF31188464540
:10377000D9D28AF31188CDE729463A46FDF7D2FA25
:10378000A36A3D443E443B44A362E5E7D0E90423F9
:103790009A4217D1C3689BB1836A8BB1043B9B1AD1
:1037A0000ED01360C368013BC360C3691A448369C8
:1037B0009A42026124BF436A0361002383620123AA
:1037C000184670470023FBE700F094B84FF08043A1
:1037D000002258631A610222DA6070474FF080437A
:1037E0000022DA60704700004FF080435863704752
:1037F0004FF08043586A70474B6843608B68836022
:10380000CB68C3600B6943614B6903628B69436298
:103810000B6803607047000008B52C4B40F2FF7145
:103820002B481A690A431A611A6922F4FF6222F0CE
:1038300007021A611A691A6B0A431A631A6D0A435E
:103840001A65244A1B6D1146FFF7D6FF00F580600C
:1038500002F11C01FFF7D0FF00F5806002F1380192
:10386000FFF7CAFF00F5806002F15401FFF7C4FFC3
:1038700000F5806002F17001FFF7BEFF00F5806087
:1038800002F18C01FFF7B8FF00F5806002F1A8019A
:10389000FFF7B2FF00F5806002F1C401FFF7ACFF53
:1038A00000F5806002F1E001FFF7A6FF00F58060FF
:1038B00002F1FC01FFF7A0FF02F58C7100F58060BA
:1038C000FFF79AFFBDE8084000F08AB800380240D0
:1038D00000000240F43F000808B500F049FAFEF786
:1038E00031FCFFF731F8BDE80840FEF70FBE0000DD
:1038F000704700000F4B1A6C42F001021A641A6EF6
:1039000042F001021A660C4A1B6E936843F00103F1
:1039100093604FF080436B229A624FF0FF32DA627D
:1039200000229A615A63DA605A6001225A611A6071
:10393000704700BF00380240002004E04FF0804292
:1039400008B51169D3680B40D9B29B076FEA010132
:10395000116107D5202383F31188FEF713FC0023A0
:1039600083F3118808BD00001B4B4FF0FF3000218E
:103970001A696FEA42526FEA52521A611A69C2F327
:103980000A021A611A695A6958615A6959615A6971
:103990001A6A62F080521A621A6A02F080521A623F
:1039A0001A6A5A6A58625A6A59625A6A0B4A106805
:1039B00040F480701060186F00F44070B0F5007F24
:1039C00003D04FF4803018671967536823F40073ED
:1039D000536000F091B900BF003802400070004011
:1039E000364B4FF44041364A1A64364A11601A6821
:1039F00042F001021A601A689207FCD59A6822F018
:103A000003029A602D4B9A6812F00C02FBD11968E0
:103A100001F0F90119609A601A6842F480321A6064
:103A20001A689003FCD55A6F42F001025A67234B83
:103A30005A6F9107FCD5244A5A601A6842F0807286
:103A40001A60204B5A685204FCD51A6842F480323E
:103A50001A605A68D003FCD51A6842F400321A6022
:103A6000184A53689903FCD5144B1A689201FCD587
:103A7000164A9A6040F20112C3F88C200022C3F863
:103A8000902040F20733124A1360136803F00F03CB
:103A9000072BFAD1094B9A6842F002029A609A68A1
:103AA00002F00C02082AFAD15A6C42F480425A649D
:103AB0005A6E42F480425A665B6E7047003802408C
:103AC0000004001000700040083640090094883857
:103AD000003C0240074A08B5536903F001035361F3
:103AE00023B1054A13680BB150689847BDE80840F8
:103AF000FEF776BF003C0140CC230220074A08B500
:103B0000536903F00203536123B1054A93680BB173
:103B1000D0689847BDE80840FEF762BF003C01400E
:103B2000CC230220074A08B5536903F0040353610C
:103B300023B1054A13690BB150699847BDE80840A5
:103B4000FEF74EBF003C0140CC230220074A08B5D7
:103B5000536903F00803536123B1054A93690BB11C
:103B6000D0699847BDE80840FEF73ABF003C0140E5
:103B7000CC230220074A08B5536903F010035361B0
:103B800023B1054A136A0BB1506A9847BDE8084053
:103B9000FEF726BF003C0140CC230220164B10B597
:103BA0005C6904F478725A61A30604D5134A936AD7
:103BB0000BB1D06A9847600604D5104A136B0BB15D
:103BC000506B9847210604D50C4A936B0BB1D06B10
:103BD0009847E20504D5094A136C0BB1506C98471D
:103BE000A30504D5054A936C0BB1D06C9847BDE88A
:103BF0001040FEF7F5BE00BF003C0140CC23022080
:103C0000194B10B55C6904F47C425A61620504D515
:103C1000164A136D0BB1506D9847230504D5134A0E
:103C2000936D0BB1D06D9847E00404D50F4A136E25
:103C30000BB1506E9847A10404D50C4A936E0BB19A
:103C4000D06E9847620404D5084A136F0BB1506FC9
:103C50009847230404D5054A936F0BB1D06F98475A
:103C6000BDE81040FEF7BCBE003C0140CC23022062
:103C700008B50348FDF742FBBDE80840FEF7B0BEBB
:103C80004C24022008B50348FDF738FBBDE8084086
:103C9000FEF7A6BEB824022008B50348FDF72EFBA8
:103CA000BDE80840FEF79CBE2425022008B5034865
:103CB000FDF724FBBDE80840FEF792BE90250220E8
:103CC00008B50348FDF71AFBBDE80840FEF788BEBB
:103CD000FC25022008B50348FDF710FBBDE80840AD
:103CE000FEF77EBE6826022008B5FFF727FEBDE876
:103CF0000840FEF775BE0000062108B50846FFF72C
:103D000083FB06210720FFF77FFB06210820FFF732
:103D10007BFB06210920FFF777FB06210A20FFF72E
:103D200073FB06211720FFF76FFB06212820FFF702
:103D30006BFB07211C20FFF767FB0C212520FFF7F9
:103D400063FB0C212620FFF75FFB0C212720FFF7E8
:103D50005BFB0C213420FFF757FB0C214720FFF7BA
:103D600053FB0C215220BDE80840FFF74DBB00007B
:103D700008B5FFF7F9FDFDF707F9FDF7D1FCFDF7F1
:103D8000A1FEFDF779FDFFF7B3FDBDE80840FFF7A1
:103D90001BBD0000034611F8012B03F8012B002A7C
:103DA000F9D1704753544D3332463F3F3F3F3F3F79
:103DB0000053544D333246375B347C355D780053C5
:103DC000544D333246375B367C375D780000000057
:103DD00090340220B8240220242502204C24022002
:103DE00090250220FC250220682602200096000073
:103DF00000000000000000000000000000000000C3
:103E00000000000000000000E9160008D5160008B8
:103E100011170008FD16000809170008F51600081C
:103E2000E1160008CD1600081D170008000000006C
:103E3000F5170008E11700081D1800080918000808
:103E40001518000801180008ED170008D917000818
:103E50002918000800000000010000000000000018
:103E60006D61696E0000000069646C65000000000F
:103E7000683E000818330220903402200100000040
:103E800041210008000000004172647550696C6FA8
:103E9000740025424F415244252D424C0025534584
:103EA0005249414C250000000200000000000000C3
:103EB000111A00087D1A000840004000383D022019
:103EC000483D022002000000000000000300000046
:103ED00000000000C11A00080000000010000000EF
:103EE000583D02200000000001000000000000001A
:103EF000FC3F022001010200A92400080D24000853
:103F0000891900088D24000843000000103F0008B4
:103F100009024300020100C032090400000102024C
:103F200001000524001001052401000104240202FF
:103F30000524060001070582030800FF09040100AB
:103F4000020A000000070501024000000705810287
:103F500040000000120000005C3F00081201100148
:103F60000200004009124157000201020301000053
:103F70000403090425424F4152442500435541564C
:103F800076350030313233343536373839414243B3
:103F900044454600008000000080000000800000D2
:103FA0000080000000000200000004000000040087
:103FB00000000400000004000000040000000400F1
:103FC0000000040000000000091C0008C11E0008D9
:103FD0006D1F000840004000744002207440022021
:103FE0000100000084400220800000004001000029
:103FF000050000000000802A00000000AAAAAAAA6A
:1040000000000000FFFF00000000000000A00A0008
:1040100000A0000000000000AAAAAAAA0050000008
:10402000FFFF0000000000770000000000500000CB
:1040300000000000AAAAAAAA00000000FFFF0000DA
:1040400000000000000000008A298A010000000032
:10405000AAAAAAAA45154501FFFF000088707007AB
:10406000777000000000020000000000AAAAAAAABF
:1040700000000100FFFF0000000000000800000039
:1040800050255000000000000AA2AAAA50155000B6
:10409000FFFF000000000008000000000000198081
:1040A00000000000AAAAAAAA00001540FFFF000015
:1040B00000000000800000800004000000000000FC
:1040C000AAAAAAAA00040000FFFF00000000000046
:1040D000000000000051510000000000AAAAAAAA96
:1040E00000515100FFFF0000000000000000000030
:1040F00000000000000000000000000000000000C0
:1041000000000000000000000000000000000000AF
:10411000000000000000000000000000000000009F
:10412000000000000000000032000000000000005D
:1041300000801F00FF00000000000000A43D0008F8
:104140003F00000049040000B13D00083F000000AE
:1041500051040000BF3D00083F0000000096000031
:104160000000080004000000703F0008000000008C
:10417000000000000000000000000000000000003F
:04418000000000003B
:00000001FF
